S01400004932435F4C494252455249412E73726563A9
S11300000C9434000C9451000C9451000C94510045
S11300100C9451000C9451000C9451000C94510018
S11300200C9451000C9451000C9451000C94510008
S11300300C9451000C9451000C9451000C945100F8
S11300400C9451000C9451000C9451000C945100E8
S11300500C9451000C9451000C9451000C945100D8
S11300600C9451000C94510011241FBECFEFD8E022
S1130070DEBFCDBF14E0A0E0B1E0EEE8F1E002C0E5
S113008005900D92A23CB107D9F724E0A2ECB4E0AC
S113009001C01D92A43CB207E1F70E949E000C949B
S11300A0C5000C940000E9EBF0E080818C7F808334
S11300B088E48093B8000895ECEBF0E08081846AD2
S11300C080838091BC008823E4F78091B900887F05
S11300D0883021F0803119F481E0089581E0089599
S11300E08E7F6170682B6093BB0084E88093BC00B2
S11300F08091BC008823E4F78091B900887F88311F
S113010021F0803419F481E0089581E0089580930A
S1130110BB0084E88093BC008091BC008823E4F792
S11301208091B900887F883209F481E00895ECEB6E
S1130130F0E0808184698083808108950E94530067
S1130140C0E0EC2FF0E0EE0FFF1FE050FF4F808186
S113015091819093C3048093C2040E945C0060E088
S113016080EC0E9470008091C3040E9487008091FB
S1130170C2040E9487000E9497008FE19EE40197C9
S1110180F1F700C00000CF5FDCCFF894FFCF92
S113018E3508F7080408C608880995085609180A98
S113019E2409E509A50AB109700A300B3A0AF90ACD
S11301AEB70BC00A7D0B390C400BFB0BB60CBB0B0B
S11301BE740C2C0D2F0CE60C9C0D9C0C510D040E86
S11301CE020DB30D640E5E0D0D0EBA0EB20D5E0E63
S11301DE080FFC0DA50E4C0F3D0EE10E850F720E91
S11301EE140FB30F9D0E3B0FD70FBE0E570FF00F0C
S11301FED20E680FFD0FDC0E6E0FFF0FDA0E680FB6
S113020EF60FCD0E570FE10FB40E3B0FC10F900E2C
S113021E140F960F620EE10E600F280EA50E200F1E
S113022EE50D5E0ED50E970D0D0E820E400DB30D1F
S113023E250EE10C510DBF0D790CE60C520D090C77
S113024E740CDE0C930BFB0B630C160B7D0BE30B88
S113025E940AF90A5D0B0D0A700AD40A8209E5099B
S113026E470AF4085609B8096508C6082709D407C9
S113027E350896084307A4070508B206140776073F
S113028E23068506E8069605FA055D060D05720534
S113029ED7058804EE04540507046F04D8048C03B0
S11302AEF603610418038403F103AB021A038903F2
S11302BE4502B7022A03E9015D02D30295010D023C
S11302CE85024B01C60142020A0189010902D500C9
S11302DE5701DA01AA002F01B6018A0013019E010B
S11302EE7500020190016B00FC008E016D0002018D
S11302FE98017A001301AD0193002F01CD01B700CF
S113030E5701F801E50089012E021F01C6016E0294
S113031E62010D02B802B0015D020C030702B702BE
S113032E690366021A03CE03CE0284033B043E0322
S113033EF603AF04B5036F042A053104EE04AB05CE
S113034EB304720530063A05FA05BA06C5058506E4
S113035E460753061407D507E206A4076608730773
S113036E3508F7080408C608880995085609180AB6
S113037E2409E509A50AB109700A300B3A0AF90AEB
S113038EB70BC00A7D0B390C400BFB0BB60CBB0B29
S113039E740C2C0D2F0CE60C9C0D9C0C510D040EA4
S11303AE020DB30D640E5E0D0D0EBA0EB20D5E0E81
S11303BE080FFC0DA50E4C0F3D0EE10E850F720EAF
S11303CE140FB30F9D0E3B0FD70FBE0E570FF00F2A
S11303DED20E680FFD0FDC0E6E0FFF0FDA0E680FD4
S11303EEF60FCD0E570FE10FB40E3B0FC10F900E4B
S11303FE140F960F620EE10E600F280EA50E200F3D
S113040EE50D5E0ED50E970D0D0E820E400DB30D3D
S113041E250EE10C510DBF0D790CE60C520D090C95
S113042E740CDE0C930BFB0B630C160B7D0BE30BA6
S113043E940AF90A5D0B0D0A700AD40A8209E509B9
S113044E470AF4085609B8096508C6082709D407E7
S113045E350896084307A4070508B206140776075D
S113046E23068506E8069605FA055D060D05720552
S113047ED7058804EE04540507046F04D8048C03CE
S113048EF603610418038403F103AB021A03890310
S113049E4502B7022A03E9015D02D30295010D025A
S11304AE85024B01C60142020A0189010902D500E7
S11304BE5701DA01AA002F01B6018A0013019E0129
S11304CE7500020190016B00FC008E016D000201AB
S11304DE98017A001301AD0193002F01CD01B700ED
S11304EE5701F801E50089012E021F01C6016E02B3
S11304FE62010D02B802B0015D020C030702B702DD
S113050E690366021A03CE03CE0284033B043E0340
S113051EF603AF04B5036F042A053104EE04AB05EC
S113052EB304720530063A05FA05BA06C505850602
S113053E460753061407D507E206A4076608730791
S105054E35086A
S9030000FC
