:100000000C9434000C943E000C943E000C943E0082
:100010000C943E000C943E000C943E000C943E0068
:100020000C943E000C943E000C943E000C943E0058
:100030000C943E000C943E000C943E000C943E0048
:100040000C943E000C943E000C943E000C943E0038
:100050000C943E000C943E000C943E000C943E0028
:100060000C943E000C943E0011241FBECFEFD8E04C
:10007000DEBFCDBF0E9463000C9466000C940000AC
:1000800084B1826084B9A0E8B0E08C918C7F8C93BD
:10009000E1E8F0E080818860808380818F7E8083CA
:1000A00080818C7F80838081846080838C91806458
:1000B0008C938C918F778C9380EB98E2909389004E
:1000C0008093880008950E944000FFCFF894FFCFEE
:00000001FF
