S0170000494E544552525550545F5043494E542E7372656363
S11300000C9434000C9448000C945D000C947D0016
S11300100C9446000C9446000C9446000C94460044
S11300200C9446000C9446000C9446000C94460034
S11300300C9446000C9446000C9446000C94460024
S11300400C9446000C9446000C9446000C94460014
S11300500C9446000C9446000C9446000C94460004
S11300600C9446000C94460011241FBECFEFD8E038
S1130070DEBFCDBF21E0A0E0B1E001C01D92A13000
S1130080B207E1F70E948F000C94AD000C940000BD
S11300901F920F920FB60F9211248F939F9395B1D5
S11300A081E0892785B98CB381608CBB9F918F9146
S11300B00F900FBE0F901F9018951F920F920FB6BE
S11300C00F9211248F939F9395B180E2892785B96C
S11300D08CB382608CBB9F918F910F900FBE0F9059
S11300E01F901895E8E6F0E0808181608083EBE65C
S11300F0F0E080818068808308951F920F920FB68C
S11301000F9211248F9381E0809300018BB381605F
S11301108BBB8F910F900FBE0F901F901895F89482
S11301200E9472007894809100018823E1F30FC04B
S113013025B180E2822785B92FEF32E587E021508F
S113014030408040E1F700C000009F5F01C090E0B4
S1110150993070F310920001E6CFF894FFCFBF
S9030000FC
