:100000000C9434000C9446000C9446000C9446006A
:100010000C9446000C9446000C9446000C94460048
:100020000C9446000C9446000C9446000C94460038
:100030000C9446000C9446000C9446000C94460028
:100040000C9446000C9446000C9446000C94460018
:100050000C9446000C9446000C9446000C94460008
:100060000C9446000C94460011241FBECFEFD8E03C
:10007000DEBFCDBF21E0A0E0B1E001C01D92A23003
:10008000B207E1F70E94E7000C94F4000C94000022
:100090009CB59F7D9CBD811106C084B1806184B9EF
:1000A00080E48CBD089584B1886284B984B1846091
:1000B00084B98CB580658CBD8CB58CBD8DB58DBD7E
:1000C00008958EBD0DB407FEFDCF8EB508951EBCFC
:1000D0000DB407FEFDCF8EB5089585E88A95F1F73A
:1000E000000085B18B7F85B980E40E946100809318
:1000F000000185E88A95F1F7000080E00E94610028
:100100008093000185E88A95F1F700008FEF0E9447
:1001100061008093000185E88A95F1F7000085B1C0
:10012000846085B980E58A95F1F785B18B7F85B9C3
:1001300080E40E9461008093000185E88A95F1F7D0
:10014000000086E00E9461008093000185E88A95A6
:10015000F1F700008FEF0E9461008093000185E8B5
:100160008A95F1F7000085B1846085B9089520E58E
:100170002A95F1F785B18B7F85B981E40E946100F2
:100180008093000185E88A95F1F7000089E00E94DC
:1001900061008093000195E89A95F1F700000E94B4
:1001A00067008093010125E82A95F1F7000085B1E9
:1001B000846085B9809101018BB98FEF93EC29E0C0
:1001C000815090402040E1F700C0000008958FEF7B
:1001D0008AB981E00E94480085B1846085B90E9497
:0C01E0006D000E94B700FDCFF894FFCF27
:00000001FF
