S015000073706920696E746572666163652E73726563F2
S11300000C9434000C9451000C9451000C94510045
S11300100C9451000C9451000C9451000C94510018
S11300200C9451000C9451000C9451000C94510008
S11300300C9451000C9451000C9451000C945100F8
S11300400C9451000C9451000C9451000C945100E8
S11300500C9451000C9451000C9451000C945100D8
S11300600C9451000C94510011241FBECFEFD8E022
S1130070DEBFCDBF11E0A0E0B1E0EEE1FCE002C0E4
S113008005900D92A831B107D9F721E0A8E1B1E0BC
S113009001C01D92AF31B207E1F70E94A3010C9495
S11300A00D060C940000ECE7F0E08081806480830E
S11300B080818F77808380818F7D8083EAE7F0E081
S11300C08081876080838FEF80937E000895EAE7C4
S11300D0F0E080818F7780830895ECE7F0E09081F1
S11300E0907F8F70892B8083EAE7F0E080818068BD
S11300F0808380818064808380917A0086FDFCCF38
S11301000E9467008091780090917900089580FFA3
S113011004C095B1946095B903C095B19B7F95B91E
S113012081FF04C095B1986095B903C095B1977FDC
S113013095B982FF04C095B1906195B903C095B19A
S11301409F7E95B983FF04C085B1806285B9089507
S113015085B18F7D85B9089595B19E7F95B995B187
S1130160916095B90E9487008FE99FE00197F1F7AC
S113017000C0000085B18E7F85B9089584B18F6376
S113018084B983E00E94AC0083E00E94AC0083E069
S11301900E94AC0082E00E94AC0082E00E94AC00AD
S11301A088E00E94AC0080E00E94AC0088E00E94DD
S11301B0AC0080E00E94AC0081E00E94AC0080E0D2
S11301C00E94AC008CE00E94AC000895CF9395B1DE
S11301D09D7F95B96130C9F028F0623049F16330F0
S11301E0D1F14BC0C0E8C80F90E080589F4F95955F
S11301F087959595879595958795959587950E946B
S1130200AC008C2F0E94AC0038C0C0ECC80F90E04A
S113021080549F4F95958795959587959595879546
S1130220959587950E94AC008C2F0E94AC0025C048
S1130230C4E9C80F90E08C569F4F95958795959586
S1130240879595958795959587950E94AC008C2FF9
S11302500E94AC0012C0C4EDC80F90E08C529F4FB6
S11302609595879595958795959587959595879572
S11302700E94AC008C2F0E94AC00CF910895CF93C4
S1130280C82F85B1826085B98C2F82958F700E94AA
S1130290AC008C2F0E94AC00CF910895CF93DF93D4
S11302A0EC0103C021960E943F0188818111FACF9D
S11302B0DF91CF9108959CB59F7D9CBD811106C0AF
S11302C084B1806184B980E48CBD089584B188626E
S11302D084B984B1846084B98CB580658CBD8CB5D7
S11302E08CBD8DB58DBD08958EBD0DB407FEFDCFBB
S11302F08EB50895CF93DF93EC0180E58A95F1F7ED
S113030085B18B7F85B980E58A95F1F7CE01882781
S11303109F70892F80630E94740180931E0180E581
S11303208A95F1F78C2F0E94740180931E0180E559
S11303308A95F1F785B1846085B980E58A95F1F7EE
S1130340DF91CF9108950E94530081E00E945B01E8
S11303500E94BE0085B1846085B980E00E946D0072
S1130360EC0190931D0180931C01BC0180E090E09E
S11303700E94280226E038E140E850E40E948E0200
S1130380609318017093190180931A0190931B01D3
S1130390DF93CF9384E191E09F938F9380E091E08A
S11303A09F938F930E94230360E080E00E94E60005
S11303B080E091E00E944E01609118017091190152
S11303C080911A0190911B010E94F901CB010E94B6
S11303D07A019FEF25EA8EE0915020408040E1F7BA
S11303E000C000000F900F900F900F900F900F908F
S11303F0B4CF0E946D0288F09F5798F0B92F9927C7
S1130400B751B0F0E1F0660F771F881F991F1AF0FB
S1130410BA95C9F714C0B13091F00E948702B1E0D7
S113042008950C948702672F782F8827B85F39F0D6
S1130430B93FCCF3869577956795B395D9F73EF494
S113044090958095709561957F4F8F4F9F4F08953C
S1130450E89409C097FB3EF490958095709561955A
S11304607F4F8F4F9F4F9923A9F0F92F96E9BB2710
S11304709395F695879577956795B795F111F8CF8C
S1130480FAF4BB0F11F460FF1BC06F5F7F4F8F4FF7
S11304909F4F16C0882311F096E911C0772321F0ED
S11304A09EE8872F762F05C0662371F096E8862F85
S11304B070E060E02AF09A95660F771F881FDAF7DC
S11304C0880F9695879597F9089557FD9058440F8E
S11304D0551F59F05F3F71F04795880F97FB991F9F
S11304E061F09F3F79F0879508951216130614065C
S11304F0551FF2CF4695F1DF08C0161617061806E9
S1130500991FF1CF86957105610508940895E894C3
S1130510BB2766277727CB0197F908950E94A1028C
S11305200C9412030E94040338F00E940B0320F081
S1130530952311F00C94FB020C94010311240C94E8
S113054088020E94650270F3959FC1F3950F50E0F5
S1130550551F629FF001729FBB27F00DB11D639F71
S1130560AA27F00DB11DAA1F649F6627B00DA11D17
S1130570661F829F2227B00DA11D621F739FB00DBD
S1130580A11D621F839FA00D611D221F749F33272D
S1130590A00D611D231F849F600D211D822F762FC6
S11305A06A2F11249F5750409AF0F1F088234AF0A3
S11305B0EE0FFF1FBB1F661F771F881F915050400F
S11305C0A9F79E3F510580F00C94FB020C9488021D
S11305D05F3FE4F3983ED4F3869577956795B79596
S11305E0F795E7959F5FC1F7FE2B880F911D9695B0
S11305F0879597F9089597F99F6780E870E060E020
S113060008959FEF80EC089500240A9416161706A7
S113061018060906089500240A94121613061406EF
S113062005060895092E0394000C11F4882352F052
S1130630BB0F40F4BF2B11F460FF04C06F5F7F4F0A
S11306408F4F9F4F0895AEE0B0E0E9E2F3E00C94E1
S1130650E4050D891E8986E08C831A8309838FEF54
S11306609FE79E838D83AE01475E5F4F6F89788DD0
S1130670CE0101960E944503EF81F885E00FF11F3A
S113068010822E96E4E00C940006ABE0B0E0EBE4BC
S1130690F3E00C94D6056C017B018A01FC011782FE
S11306A01682838181FFCCC1CE0101963C01F60103
S11306B09381F70193FD859193FF81917F018823B5
S11306C009F4BAC1853239F493FD859193FF819180
S11306D07F01853229F4B60190E00E943C05E7CF02
S11306E0912C212C312CFFE1F315D8F08B3279F0C9
S11306F038F4803279F08332A1F4232D20611DC0B7
S11307008D3261F0803369F4232D216016C0832D6E
S11307108260382EE32DE4603E2E2AC0F32DF8606B
S11307201DC037FC2DC020ED280F2A3040F08E323A
S1130730B9F436FC81C1232D2064322E19C036FE53
S113074006C08AE0989E200D1124922E11C0EAE082
S11307502E9E200D1124222EF32DF0623F2E08C070
S11307608C3621F4832D8068382E02C0883641F4FB
S1130770F70193FD859193FF81917F018111B3CF9F
S1130780982F9F7D9554933028F40C5F1F4F9FE35F
S113079099830DC0833631F0833771F0833509F0C6
S11307A059C021C0F801808189830E5F1F4F8824BE
S11307B08394912C530113C02801F2E04F0E511C75
S11307C0F801A080B18036FE03C0692D70E002C03C
S11307D06FEF7FEFC5010E9431054C018201F32DBB
S11307E0FF773F2E16C0280122E0420E511CF8016B
S11307F0A080B18036FE03C0692D70E002C06FEFA7
S11308007FEFC5010E9426054C01F32DF0683F2EB1
S1130810820133FC1BC0822D90E088169906B0F447
S1130820B60180E290E00E943C052A94F4CFF501E1
S113083037FC859137FE81915F01B60190E00E94FB
S11308403C0521102A9421E0821A91088114910414
S113085071F7E8C0843611F0893641F5F80137FEA6
S113086007C060817181828193810C5F1F4F08C032
S113087060817181072E000C880B990B0E5F1F4F4E
S1130880F32DFF763F2E97FF09C0909580957095C4
S113089061957F4F8F4F9F4FF0683F2E2AE030E0E5
S11308A0A3010E947805882E861845C0853731F447
S11308B0232D2F7EB22E2AE030E025C0932D997F80
S11308C0B92E8F36C1F018F4883579F0B5C0803769
S11308D019F0883721F0B0C0E92FE061BE2EB4FED4
S11308E00DC0FB2DF460BF2E09C034FE0AC0292FB1
S11308F02660B22E06C028E030E005C020E130E0DA
S113090002C020E132E0F801B7FE07C060817181C6
S1130910828193810C5F1F4F06C06081718180E0EA
S113092090E00E5F1F4FA3010E947805882E861861
S1130930FB2DFF773F2E36FE0DC0232D2E7FA22EDA
S1130940891458F434FE0BC032FC09C0832D8E7E0A
S1130950A82E05C0B82CA32C03C0B82C01C0B92CF8
S1130960A4FE0FC0FE01E80DF11D8081803321F447
S11309709A2D997EA92E09C0A2FE06C0B394B39401
S113098004C08A2D867809F0B394A3FC11C0A0FE9C
S113099006C0B21488F4280C922C9B180EC0B21412
S11309A060F4B60180E290E00E943C05B394F7CF76
S11309B0B21418F42B1802C0982C212CA4FE10C0D9
S11309C0B60180E390E00E943C05A2FE17C0A1FCA2
S11309D003C088E790E002C088E590E0B6010CC04F
S11309E08A2D867859F0A1FE02C08BE201C080E214
S11309F0A7FC8DE2B60190E00E943C05891438F40E
S1130A00B60180E390E00E943C059A94F7CF8A9463
S1130A10F301E80DF11D8081B60190E00E943C05D0
S1130A208110F5CF222009F442CEB60180E290E095
S1130A300E943C052A94F6CFF6018681978102C074
S1130A408FEF9FEF2B96E2E10C94F205FC010590E9
S1130A50615070400110D8F7809590958E0F9F1FBC
S1130A600895FC016150704001900110D8F7809501
S1130A7090958E0F9F1F08950F931F93CF93DF932D
S1130A80FB01238121FD03C08FEF9FEF2CC022FFC8
S1130A9016C046815781248135814217530744F497
S1130AA0A081B1819D012F5F3F4F318320838C93BF
S1130AB0268137812F5F3F4F3783268314C08B01F4
S1130AC0EC01FB010084F185E02D0995892BE1F609
S1130AD0D80116968D919C911797019617969C9321
S1130AE08E931697CE01DF91CF911F910F910895A8
S1130AF0FA01AA27283051F1203181F1E8946F934B
S1130B006E7F6E5F7F4F8F4F9F4FAF4FB1E03ED0F0
S1130B10B4E03CD0670F781F891F9A1FA11D680F8E
S1130B20791F8A1F911DA11D6A0F711D811D911DC1
S1130B30A11D20D009F468943F912AE0269F112436
S1130B403019305D3193DEF6CF010895462F47709A
S1130B50405D4193B3E00FD0C9F7F6CF462F4F70F5
S1130B60405D4A3318F0495D31FD4052419302D053
S1130B70A9F7EACFB4E0A6959795879577956795F9
S1130B80BA95C9F700976105710508959B01AC01F9
S1130B900A2E06945795479537952795BA95C9F720
S1130BA0620F731F841F951FA01D08952F923F92FB
S1130BB04F925F926F927F928F929F92AF92BF9269
S1130BC0CF92DF92EF92FF920F931F93CF93DF9315
S1130BD0CDB7DEB7CA1BDB0B0FB6F894DEBF0FBE72
S1130BE0CDBF09942A88398848885F846E847D84BF
S1130BF08C849B84AA84B984C884DF80EE80FD80C1
S1130C000C811B81AA81B981CE0FD11D0FB6F89436
S1110C10DEBF0FBECDBFED010895F894FFCFF7
S1130C1E20000000000000000000000000000000A2
S10B0C2E0000000025346400FD
S9030000FC
