:100000000C9434000C943E000C943E000C943E0082
:100010000C943E000C943E000C943E000C943E0068
:100020000C943E000C943E000C943E000C943E0058
:100030000C943E000C943E000C943E000C943E0048
:100040000C943E000C943E000C943E000C943E0038
:100050000C943E000C943E000C943E000C943E0028
:100060000C943E000C943E0011241FBECFEFD8E04C
:10007000DEBFCDBF0E9463000C9466000C940000AC
:10008000A0E8B0E08C9183608C93E1E8F0E080819F
:100090008860808380818F7E80838C9180688C9340
:1000A0008C918F7D8C9380818260808380818A7F18
:1000B000808384B1826084B982E393E09093890065
:1000C0008093880008950E944000FFCFF894FFCFEE
:00000001FF
