S01700007370695F746865726D6F6375706C652E73726563BA
S11300000C9434000C9451000C9451000C94510045
S11300100C9451000C9451000C9451000C94510018
S11300200C9451000C9451000C9451000C94510008
S11300300C9451000C9451000C9451000C945100F8
S11300400C9451000C9451000C9451000C945100E8
S11300500C9451000C9451000C9451000C945100D8
S11300600C9451000C94510011241FBECFEFD8E022
S1130070DEBFCDBF11E0A0E0B1E0EAE3F9E002C0E9
S113008005900D92A233B107D9F721E0A2E3B1E0C4
S113009001C01D92A633B207E1F70E949D010C94A2
S11300A09B040C94000080FF04C098B1946098B93C
S11300B003C098B19B7F98B981FF04C098B1986040
S11300C098B903C098B1977F98B982FF04C098B1DA
S11300D0906198B903C098B19F7E98B983FF04C01A
S11300E088B1806288B9089588B18F7D88B90895F0
S11300F098B19E7F98B998B1916098B90E945300C5
S11301008FE99FE00197F1F700C0000088B18E7F6E
S113011088B9089587B18F6387B983E00E94780016
S113012083E00E94780083E00E94780082E00E94CD
S1130130780082E00E94780088E00E94780080E0E5
S11301400E94780088E00E94780080E00E94780095
S113015081E00E94780080E00E9478008CE00E9498
S113016078000895CF9398B19D7F98B96130C9F014
S113017028F0623049F16330D1F14BC0C0E8C80FB8
S113018090E080589F4F959587959595879595957F
S11301908795959587950E9478008C2F0E9478000A
S11301A038C0C0ECC80F90E080549F4F9595879558
S11301B09595879595958795959587950E9478004F
S11301C08C2F0E94780025C0C4E9C80F90E08C569B
S11301D09F4F959587959595879595958795959531
S11301E087950E9478008C2F0E94780012C0C4ED7D
S11301F0C80F90E08C529F4F95958795959587955C
S113020095958795959587950E9478008C2F0E94E7
S11302107800CF910895CF93C82F88B1826088B9B0
S11302208C2F82958F700E9478008C2F0E9478000A
S1130230CF910895CF93DF93EC0103C021960E94E0
S11302400B0188818111FACFDF91CF9108959CB57C
S11302509F7D9CBD811106C084B1806184B980E416
S11302608CBD089584B1886284B984B1846084B9F2
S11302708CB580658CBD8CB58CBD8DB58DBD089558
S11302801EBC0DB407FEFDCF8EB5089585B18B7FDE
S113029085B92AE62A95F1F700C00E9440018093AF
S11302A032018AE68A95F1F700C00E9440018093EA
S11302B0350185B1846085B98FE39CE90197F1F735
S11302C000C0000080913501887090E0982F882745
S11302D020913201822B95958795959587959595D3
S11302E0879580933301909334019F938F9384E196
S11302F091E09F938F9380E091E09F938F930E946E
S1130300B10161E084E00E94B20088E191E00E94C2
S11303101A0180E091E00E941A019FEF20E782E039
S1130320915020408040E1F700C000000F900F90F2
S11303300F900F900F900F9008950E948A0081E013
S11303400E94270160E082E00E94B2008FE191E008
S11303500E941A018AE68A95F1F700C00E944601BC
S1130360FDCFAEE0B0E0E7EBF1E00C9472040D8950
S11303701E8986E08C831A8309838FEF9FE79E830F
S11303808D83AE01475E5F4F6F89788DCE010196F4
S11303900E94D301EF81F885E00FF11F10822E96A1
S11303A0E4E00C948E04ABE0B0E0E9EDF1E00C94F1
S11303B064046C017B018A01FC011782168283812B
S11303C081FFCCC1CE0101963C01F6019381F70176
S11303D093FD859193FF81917F01882309F4BAC12C
S11303E0853239F493FD859193FF81917F018532A4
S11303F029F4B60190E00E94CA03E7CF912C212C86
S1130400312CFFE1F315D8F08B3279F038F48032D7
S113041079F08332A1F4232D20611DC08D3261F067
S1130420803369F4232D216016C0832D8260382E19
S1130430E32DE4603E2E2AC0F32DF8601DC037FC86
S11304402DC020ED280F2A3040F08E32B9F436FC4E
S113045081C1232D2064322E19C036FE06C08AE0E5
S1130460989E200D1124922E11C0EAE02E9E200D9C
S11304701124222EF32DF0623F2E08C08C3621F475
S1130480832D8068382E02C0883641F4F70193FD2D
S1130490859193FF81917F018111B3CF982F9F7D27
S11304A09554933028F40C5F1F4F9FE399830DC03C
S11304B0833631F0833771F0833509F059C021C098
S11304C0F801808189830E5F1F4F88248394912CC7
S11304D0530113C02801F2E04F0E511CF801A08013
S11304E0B18036FE03C0692D70E002C06FEF7FEF6C
S11304F0C5010E94BF034C018201F32DFF773F2EFB
S113050016C0280122E0420E511CF801A080B180DF
S113051036FE03C0692D70E002C06FEF7FEFC501A6
S11305200E94B4034C01F32DF0683F2E820133FC8A
S11305301BC0822D90E088169906B0F4B60180E2C3
S113054090E00E94CA032A94F4CFF50137FC859108
S113055037FE81915F01B60190E00E94CA03211029
S11305602A9421E0821A91088114910471F7E8C059
S1130570843611F0893641F5F80137FE07C06081F1
S11305807181828193810C5F1F4F08C060817181EA
S1130590072E000C880B990B0E5F1F4FF32DFF766F
S11305A03F2E97FF09C090958095709561957F4F78
S11305B08F4F9F4FF0683F2E2AE030E0A3010E9446
S11305C00604882E861845C0853731F4232D2F7EE6
S11305D0B22E2AE030E025C0932D997FB92E8F36B4
S11305E0C1F018F4883579F0B5C0803719F0883730
S11305F021F0B0C0E92FE061BE2EB4FE0DC0FB2D8A
S1130600F460BF2E09C034FE0AC0292F2660B22E22
S113061006C028E030E005C020E130E002C020E15F
S113062032E0F801B7FE07C0608171818281938155
S11306300C5F1F4F06C06081718180E090E00E5F07
S11306401F4FA3010E940604882E8618FB2DFF77F6
S11306503F2E36FE0DC0232D2E7FA22E891458F472
S113066034FE0BC032FC09C0832D8E7EA82E05C03B
S1130670B82CA32C03C0B82C01C0B92CA4FE0FC005
S1130680FE01E80DF11D8081803321F49A2D997EBD
S1130690A92E09C0A2FE06C0B394B39404C08A2D47
S11306A0867809F0B394A3FC11C0A0FE06C0B2146E
S11306B088F4280C922C9B180EC0B21460F4B60176
S11306C080E290E00E94CA03B394F7CFB21418F406
S11306D02B1802C0982C212CA4FE10C0B60180E374
S11306E090E00E94CA03A2FE17C0A1FC03C088E7E1
S11306F090E002C088E590E0B6010CC08A2D8678AF
S113070059F0A1FE02C08BE201C080E2A7FC8DE299
S1130710B60190E00E94CA03891438F4B60180E35C
S113072090E00E94CA039A94F7CF8A94F301E80DEB
S1130730F11D8081B60190E00E94CA038110F5CFBB
S1130740222009F442CEB60180E290E00E94CA035E
S11307502A94F6CFF6018681978102C08FEF9FEF2E
S11307602B96E2E10C948004FC01059061507040EA
S11307700110D8F7809590958E0F9F1F0895FC0166
S11307806150704001900110D8F7809590958E0FBC
S11307909F1F08950F931F93CF93DF93FB01238132
S11307A021FD03C08FEF9FEF2CC022FF16C04681AE
S11307B05781248135814217530744F4A081B181C4
S11307C09D012F5F3F4F318320838C932681378196
S11307D02F5F3F4F3783268314C08B01EC01FB014D
S11307E00084F185E02D0995892BE1F6D801169650
S11307F08D919C911797019617969C938E931697BB
S1130800CE01DF91CF911F910F910895FA01AA278C
S1130810283051F1203181F1E8946F936E7F6E5F3F
S11308207F4F8F4F9F4FAF4FB1E03ED0B4E03CD0ED
S1130830670F781F891F9A1FA11D680F791F8A1FD0
S1130840911DA11D6A0F711D811D911DA11D20D037
S113085009F468943F912AE0269F11243019305DF1
S11308603193DEF6CF010895462F4770405D4193E2
S1130870B3E00FD0C9F7F6CF462F4F70405D4A332F
S113088018F0495D31FD4052419302D0A9F7EACFF7
S1130890B4E0A6959795879577956795BA95C9F726
S11308A000976105710508959B01AC010A2E069419
S11308B05795479537952795BA95C9F7620F731FD2
S11308C0841F951FA01D08952F923F924F925F920F
S11308D06F927F928F929F92AF92BF92CF92DF924C
S11308E0EF92FF920F931F93CF93DF93CDB7DEB7B1
S11308F0CA1BDB0B0FB6F894DEBF0FBECDBF099445
S11309002A88398848885F846E847D848C849B849B
S1130910AA84B984C884DF80EE80FD800C811B81A9
S1130920AA81B981CE0FD11D0FB6F894DEBF0FBED8
S10D0930CDBFED010895F894FFCF48
S113093A2000000000000000000000000000000089
S113094A000000002535580054656D703A200054A3
S113095A4845524D4F4355504C45202D205350493C
S105096A000087
S9030000FC
