:100000000C9434000C943E000C943E000C943E0082
:100010000C943E000C943E000C943E000C943E0068
:100020000C943E000C943E000C943E000C946F0027
:100030000C947E000C943E000C943E000C943E0008
:100040000C943E000C943E000C943E000C943E0038
:100050000C943E000C943E000C943E000C943E0028
:100060000C943E000C943E0011241FBECFEFD8E04C
:10007000DEBFCDBF0E9468000C948D000C94000080
:10008000A0E8B0E08C918C7F8C93E1E8F0E0808177
:100090008860808380818F7E80838081816080837F
:1000A0008081897F8083EFE6F0E0808186608083B5
:1000B0008C918F738C938FE79CE090938900809351
:1000C00088008FE39BE090938B0080938A000895D3
:1000D00084B1806284B90E9440007894FFCF1F925F
:1000E0000F920FB60F9211248F9385B1806285B95C
:1000F0008F910F900FBE0F901F9018951F920F9227
:100100000FB60F9211248F9385B18F7D85B98F9192
:0E0110000F900FBE0F901F901895F894FFCF20
:00000001FF
