S01400004144435F4C494252455249412E737265639F
S11300000C9434000C9451000C9451000C94510045
S11300100C9451000C9451000C9451000C94510018
S11300200C9451000C9451000C9451000C94510008
S11300300C9451000C9451000C9451000C945100F8
S11300400C9451000C9451000C9451000C945100E8
S11300500C9451000C9451000C9451000C945100D8
S11300600C9451000C94510011241FBECFEFD8E022
S1130070DEBFCDBF11E0A0E0B1E0E4EAFFE002C0E2
S113008005900D92AC32B107D9F721E0ACE2B1E0B2
S113009001C01D92AC3FB207E1F70E9432030C94F9
S11300A0D0070C940000ECE7F0E08081806480834A
S11300B080818F77808380818F7D8083EAE7F0E081
S11300C08081876080838FEF80937E000895EAE7C4
S11300D0F0E080818F7780830895ECE7F0E09081F1
S11300E0907F8F70892B8083EAE7F0E080818068BD
S11300F0808380818064808380917A0086FDFCCF38
S11301000E9467008091780090917900089580FFA3
S113011004C095B1946095B903C095B19B7F95B91E
S113012081FF04C095B1986095B903C095B1977FDC
S113013095B982FF04C095B1906195B903C095B19A
S11301409F7E95B983FF04C085B1806285B9089507
S113015085B18F7D85B9089595B19E7F95B995B187
S1130160916095B90E9487008FE99FE00197F1F7AC
S113017000C0000085B18E7F85B9089584B18F6376
S113018084B983E00E94AC0083E00E94AC0083E069
S11301900E94AC0082E00E94AC0082E00E94AC00AD
S11301A088E00E94AC0080E00E94AC0088E00E94DD
S11301B0AC0080E00E94AC0081E00E94AC0080E0D2
S11301C00E94AC008CE00E94AC000895CF9395B1DE
S11301D09D7F95B96130C9F028F0623049F16330F0
S11301E0D1F14BC0C0E8C80F90E080589F4F95955F
S11301F087959595879595958795959587950E946B
S1130200AC008C2F0E94AC0038C0C0ECC80F90E04A
S113021080549F4F95958795959587959595879546
S1130220959587950E94AC008C2F0E94AC0025C048
S1130230C4E9C80F90E08C569F4F95958795959586
S1130240879595958795959587950E94AC008C2FF9
S11302500E94AC0012C0C4EDC80F90E08C529F4FB6
S11302609595879595958795959587959595879572
S11302700E94AC008C2F0E94AC00CF910895CF93C4
S1130280C82F85B1826085B98C2F82958F700E94AA
S1130290AC008C2F0E94AC00CF910895CF93DF93D4
S11302A0EC0103C021960E943F0188818111FACF9D
S11302B0DF91CF910895CF93DF9380E00E946D008A
S11302C0BC0180E090E00E94EB0320E030E040EAD3
S11302D050E40E94790420E030E040EA50E40E94B7
S11302E079036093E4017093E5018093E6019093B0
S11302F0E70181E00E946D00BC0180E090E00E9473
S1130300EB0320E030E040EA50E40E94790420E06E
S113031030E040EA50E40E94790360937E017093D8
S11303207F01809380019093810182E00E946D009F
S1130330BC0180E090E00E94EB0320E030E040EA62
S113034050E40E94790420E030E040EA50E40E9446
S1130350790360932E0170932F0180933001909361
S1130360310183E00E946D00BC0180E090E00E94B6
S1130370EB0320E030E040EA50E40E94790420E0FE
S113038030E040EA50E40E947903609334017093B2
S11303903501809336019093370184E00E946D000B
S11303A0BC0180E090E00E94EB0320E030E040EAF2
S11303B050E40E94790420E030E040EA50E40E94D6
S11303C079036093C8017093C9018093CA01909323
S11303D0CB0185E00E946D00BC0180E090E00E94AA
S11303E0EB0320E030E040EA50E40E94790420E08E
S11303F030E040EA50E40E9479036093E001709396
S1130400E1018093E2019093E30186E00E946D0094
S1130410BC0180E090E00E94EB0320E030E040EA81
S113042050E40E94790420E030E040EA50E40E9465
S1130430790360937A0170937B0180937C0190939C
S11304407D0187E00E946D00BC0180E090E00E9485
S1130450EB0320E030E040EA50E40E94790420E01D
S113046030E040EA50E40E9479036093B001709355
S1130470B1018093B2019093B3018091E7018F930E
S11304808091E6018F938091E5018F938091E4013F
S11304908F93C5E0D1E0DF93CF9388E391E09F93FE
S11304A08F930E94E604809181018F938091800153
S11304B08F9380917F018F9380917E018F93DF933F
S11304C0CF9384EB91E09F938F930E94E6048091F5
S11304D031018F93809130018F9380912F018F93FD
S11304E080912E018F93DF93CF9388EE91E09F93B9
S11304F08F930E94E604809137018F938091360197
S11305008F93809135018F93809134018F93DF9382
S1130510CF938CEC91E09F938F930E94E6048DB768
S11305209EB780960FB6F8949EBF0FBE8DBF809184
S1130530CB018F938091CA018F938091C9018F93CE
S11305408091C8018F93DF93CF938AE991E09F93C1
S11305508F930E94E6048091E3018F938091E201DE
S11305608F938091E1018F938091E0018F93DF93CA
S1130570CF9386E691E09F938F930E94E604809147
S11305807D018F9380917C018F9380917B018F9368
S113059080917A018F93DF93CF9382E891E09F93C8
S11305A08F930E94E6048091B3018F938091B201EE
S11305B08F938091B1018F938091B0018F93DF93DA
S11305C0CF938EE491E09F938F930E94E6048DB7BE
S11305D09EB780960FB6F8949EBF0FBE8DBF60E0A5
S11305E084E00E94E60088E391E00E944E0160E00E
S11305F08FE00E94E60084EB91E00E944E0161E0EE
S113060084E00E94E60088EE91E00E944E0161E0E1
S11306108FE00E94E6008CEC91E00E944E0162E0C3
S113062084E00E94E6008AE991E00E944E0162E0C3
S11306308FE00E94E60086E691E00E944E0163E0AE
S113064084E00E94E60082E891E00E944E0163E0AB
S11306508FE00E94E6008EE491E00E944E01DF915B
S1130660CF9108950E9453000E94BE0060E080E094
S11306700E94E6008BE091E00E944E0160E08CE075
S11306800E94E6008FE091E00E944E0161E080E06C
S11306900E94E60083E191E00E944E0161E08CE05B
S11306A00E94E60087E191E00E944E0162E080E052
S11306B00E94E6008BE191E00E944E0162E08CE032
S11306C00E94E6008FE191E00E944E0163E080E029
S11306D00E94E60083E291E00E944E0163E08CE018
S11306E00E94E60087E291E00E944E010E945B01B5
S11306F0FDCF0E948D030C943F040E94380458F0EF
S11307000E94310440F029F45F3F29F00C9428043E
S113071051110C9473040C942E040E94500468F339
S11307209923B1F3552391F3951B550BBB27AA27A6
S113073062177307840738F09F5F5F4F220F331FE0
S1130740441FAA1FA9F335D00E2E3AF0E0E832D0A8
S113075091505040E695001CCAF72BD0FE2F29D0AB
S1130760660F771F881FBB1F261737074807AB077D
S1130770B0E809F0BB0B802DBF01FF2793585F4FF2
S11307803AF09E3F510578F00C9428040C947304BD
S11307905F3FE4F3983ED4F3869577956795B795D4
S11307A0F7959F5FC9F7880F911D9695879597F9DF
S11307B00895E1E0660F771F881FBB1F6217730758
S11307C08407BA0720F0621B730B840BBA0BEE1F6D
S11307D088F7E0950895E89409C097FB3EF4909556
S11307E08095709561957F4F8F4F9F4F9923A9F006
S11307F0F92F96E9BB279395F69587957795679595
S1130800B795F111F8CFFAF4BB0F11F460FF1BC0D8
S11308106F5F7F4F8F4F9F4F16C0882311F096E96B
S113082011C0772321F09EE8872F762F05C0662319
S113083071F096E8862F70E060E02AF09A95660FD2
S1130840771F881FDAF7880F9695879597F908958B
S113085097F99F6780E870E060E008959FEF80EC6F
S1130860089500240A941616170618060906089512
S113087000240A9412161306140605060895092E78
S11308800394000C11F4882352F0BB0F40F4BF2BE7
S113089011F460FF04C06F5F7F4F8F4F9F4F089527
S11308A057FD9058440F551F59F05F3F71F047951D
S11308B0880F97FB991F61F09F3F79F08795089502
S11308C0121613061406551FF2CF4695F1DF08C021
S11308D0161617061806991FF1CF8695710561053E
S11308E008940895E894BB2766277727CB0197F9E6
S11308F008950E948C040C943F040E94310438F043
S11309000E94380420F0952311F00C9428040C94D0
S11309102E0411240C9473040E94500470F3959FC8
S1130920C1F3950F50E0551F629FF001729FBB27E2
S1130930F00DB11D639FAA27F00DB11DAA1F649F7E
S11309406627B00DA11D661F829F2227B00DA11D31
S1130950621F739FB00DA11D621F839FA00D611DB7
S1130960221F749F3327A00D611D231F849F600DD8
S1130970211D822F762F6A2F11249F5750409AF001
S1130980F1F088234AF0EE0FFF1FBB1F661F771F8D
S1130990881F91505040A9F79E3F510580F00C9458
S11309A028040C9473045F3FE4F3983ED4F38695D3
S11309B077956795B795F795E7959F5FC1F7FE2BF8
S11309C0880F911D9695879597F90895AEE0B0E04C
S11309D0ECEEF4E00C94A7070D891E8986E08C8365
S11309E01A8309838FEF9FE79E838D83AE01475E51
S11309F05F4F6F89788DCE0101960E940805EF81C3
S1130A00F885E00FF11F10822E96E4E00C94C307E2
S1130A10ABE0B0E0EEE0F5E00C9499076C017B01EB
S1130A208A01FC0117821682838181FFCCC1CE0129
S1130A3001963C01F6019381F70193FD859193FFA3
S1130A4081917F01882309F4BAC1853239F493FD79
S1130A50859193FF81917F01853229F4B60190E05D
S1130A600E94FF06E7CF912C212C312CFFE1F315D6
S1130A70D8F08B3279F038F4803279F08332A1F4F3
S1130A80232D20611DC08D3261F0803369F4232D44
S1130A90216016C0832D8260382EE32DE4603E2E43
S1130AA02AC0F32DF8601DC037FC2DC020ED280F9F
S1130AB02A3040F08E32B9F436FC81C1232D2064F3
S1130AC0322E19C036FE06C08AE0989E200D1124ED
S1130AD0922E11C0EAE02E9E200D1124222EF32D19
S1130AE0F0623F2E08C08C3621F4832D8068382EA6
S1130AF002C0883641F4F70193FD859193FF8191FB
S1130B007F018111B3CF982F9F7D9554933028F4A2
S1130B100C5F1F4F9FE399830DC0833631F08337F9
S1130B2071F0833509F059C021C0F80180818983AF
S1130B300E5F1F4F88248394912C530113C0280106
S1130B40F2E04F0E511CF801A080B18036FE03C0C4
S1130B50692D70E002C06FEF7FEFC5010E94F406BB
S1130B604C018201F32DFF773F2E16C0280122E0AD
S1130B70420E511CF801A080B18036FE03C0692DDD
S1130B8070E002C06FEF7FEFC5010E94E9064C01DF
S1130B90F32DF0683F2E820133FC1BC0822D90E0C0
S1130BA088169906B0F4B60180E290E00E94FF0630
S1130BB02A94F4CFF50137FC859137FE81915F01CA
S1130BC0B60190E00E94FF0621102A9421E0821AC7
S1130BD091088114910471F7E8C0843611F08936C4
S1130BE041F5F80137FE07C06081718182819381EC
S1130BF00C5F1F4F08C060817181072E000C880BA9
S1130C00990B0E5F1F4FF32DFF763F2E97FF09C000
S1130C1090958095709561957F4F8F4F9F4FF068A9
S1130C203F2E2AE030E0A3010E943B07882E86185D
S1130C3045C0853731F4232D2F7EB22E2AE030E0D3
S1130C4025C0932D997FB92E8F36C1F018F48835BD
S1130C5079F0B5C0803719F0883721F0B0C0E92F9A
S1130C60E061BE2EB4FE0DC0FB2DF460BF2E09C0A2
S1130C7034FE0AC0292F2660B22E06C028E030E0D8
S1130C8005C020E130E002C020E132E0F801B7FE07
S1130C9007C060817181828193810C5F1F4F06C000
S1130CA06081718180E090E00E5F1F4FA3010E947C
S1130CB03B07882E8618FB2DFF773F2E36FE0DC08E
S1130CC0232D2E7FA22E891458F434FE0BC032FC3F
S1130CD009C0832D8E7EA82E05C0B82CA32C03C07A
S1130CE0B82C01C0B92CA4FE0FC0FE01E80DF11D03
S1130CF08081803321F49A2D997EA92E09C0A2FE09
S1130D0006C0B394B39404C08A2D867809F0B394D2
S1130D10A3FC11C0A0FE06C0B21488F4280C922CC7
S1130D209B180EC0B21460F4B60180E290E00E94F9
S1130D30FF06B394F7CFB21418F42B1802C0982C02
S1130D40212CA4FE10C0B60180E390E00E94FF06AF
S1130D50A2FE17C0A1FC03C088E790E002C088E5AA
S1130D6090E0B6010CC08A2D867859F0A1FE02C02D
S1130D708BE201C080E2A7FC8DE2B60190E00E9404
S1130D80FF06891438F4B60180E390E00E94FF0660
S1130D909A94F7CF8A94F301E80DF11D8081B6018E
S1130DA090E00E94FF068110F5CF222009F442CE84
S1130DB0B60180E290E00E94FF062A94F6CFF60185
S1130DC08681978102C08FEF9FEF2B96E2E10C940E
S1130DD0B507FC010590615070400110D8F780956B
S1130DE090958E0F9F1F0895FC01615070400190F3
S1130DF00110D8F7809590958E0F9F1F08950F933B
S1130E001F93CF93DF93FB01238121FD03C08FEF59
S1130E109FEF2CC022FF16C0468157812481358163
S1130E204217530744F4A081B1819D012F5F3F4FC6
S1130E30318320838C93268137812F5F3F4F378303
S1130E40268314C08B01EC01FB010084F185E02DA5
S1130E500995892BE1F6D80116968D919C911797E7
S1130E60019617969C938E931697CE01DF91CF919E
S1130E701F910F910895FA01AA27283051F12031CA
S1130E8081F1E8946F936E7F6E5F7F4F8F4F9F4F1A
S1130E90AF4FB1E03ED0B4E03CD0670F781F891F5C
S1130EA09A1FA11D680F791F8A1F911DA11D6A0F2A
S1130EB0711D811D911DA11D20D009F468943F91DD
S1130EC02AE0269F11243019305D3193DEF6CF01DC
S1130ED00895462F4770405D4193B3E00FD0C9F7A2
S1130EE0F6CF462F4F70405D4A3318F0495D31FD0F
S1130EF04052419302D0A9F7EACFB4E0A695979562
S1130F00879577956795BA95C9F700976105710537
S1130F1008959B01AC010A2E069457954795379581
S1130F202795BA95C9F7620F731F841F951FA01DDB
S1130F3008952F923F924F925F926F927F928F9279
S1130F409F92AF92BF92CF92DF92EF92FF920F9354
S1130F501F93CF93DF93CDB7DEB7CA1BDB0B0FB65E
S1130F60F894DEBF0FBECDBF09942A88398848881B
S1130F705F846E847D848C849B84AA84B984C884B1
S1130F80DF80EE80FD800C811B81AA81B981CE0FA8
S1130F90D11D0FB6F894DEBF0FBECDBFED0108958D
S1070FA0F894FFCFEF
S1130FA4253034750025302E32660050303A005016
S1130FB4313A0050323A0050333A0050343A005037
S10F0FC4353A0050363A0050373A00002D
S9030000FC
