:100000000C9434000C943E000C943E000C943E0082
:100010000C943E000C943E000C943E000C943E0068
:100020000C943E000C943E000C943E000C943E0058
:100030000C943E000C943E000C943E000C943E0048
:100040000C943E000C943E000C943E000C943E0038
:100050000C943E000C943E000C943E000C943E0028
:100060000C943E000C943E0011241FBECFEFD8E04C
:10007000DEBFCDBF0E9450020C9478020C940000A9
:1000800080FF04C095B1946095B903C095B19B7F82
:1000900095B981FF04C095B1986095B903C095B139
:1000A000977F95B982FF04C095B1906195B903C05F
:1000B00095B19F7E95B983FF04C085B1806285B9F3
:1000C000089585B18F7D85B9089595B19E7F95B9C5
:1000D00095B1916095B90E9440008FE99FE001972A
:1000E000F1F700C0000085B18E7F85B9089584B115
:1000F0008F6384B983E00E94650083E00E946500FD
:1001000083E00E94650082E00E94650082E00E9418
:10011000650088E00E94650080E00E94650088E03C
:100120000E94650080E00E94650081E00E946500F9
:1001300080E00E9465008DE00E94650008958F9226
:10014000AF92CF92DF92EF92FF920F931F93CF93D4
:10015000DF93CDB7DEB7D62E142FF22E823009F4FE
:1001600067C018F4813041F07FC1833009F4C5C005
:10017000843009F41EC178C184E00E94650080E1EA
:100180000E94650085B1826085B98D2D82958F7042
:100190000E9465008D2D0E946500812F82958F70D1
:1001A0000E946500812F0E9465008F2D82958F70BF
:1001B0000E9465008F2D0E946500802F82958F70B0
:1001C0000E946500802F0E9465008E2D82958F70A1
:1001D0000E9465008E2D0E9465008C2D82958F7087
:1001E0000E9465008C2D0E9465008A2D82958F707B
:1001F0000E9465008A2D0E946500882D82958F706F
:100200000E946500882D0E94650085B18D7F85B9AB
:1002100080E00E94650081E00E9465002FEF80E78A
:1002200092E0215080409040E1F700C000001CC1E6
:1002300081E00E94650080E00E94650085B18260D7
:1002400085B98D2D82958F700E9465008D2D0E943D
:100250006500D12ED694D694D694D6948D2D0E9436
:100260006500812F0E9465008D2D0E946500812F01
:100270000E9465008F2D82958F700E9465008F2DE2
:100280000E946500802F82958F700E946500802FEC
:100290000E9465008E2D82958F700E9465008E2DC4
:1002A0000E9465008C2D82958F700E9465008C2DB8
:1002B0000E9465008A2D82958F700E9465008A2DAC
:1002C0000E946500882D82958F700E946500882DA0
:1002D0000E94650085B18D7F85B980E00E94650030
:1002E00081E00E9465002FEF80E792E0215080407E
:1002F0009040E1F700C00000B7C082E00E946500B6
:1003000080E00E94650085B1826085B98D2D82955F
:100310008F700E9465008D2D0E946500812F82954F
:100320008F700E946500812F0E9465008F2D82953D
:100330008F700E9465008F2D0E946500802F82952E
:100340008F700E946500802F0E9465008E2D82951F
:100350008F700E9465008E2D0E9465008C2D829505
:100360008F700E9465008C2D0E9465008A2D8295F9
:100370008F700E9465008A2D0E946500882D8295ED
:100380008F700E946500882D0E94650085B18D7F69
:1003900085B980E00E94650081E00E9465002FEF32
:1003A00080E792E0215080409040E1F700C00000DB
:1003B0005BC084E00E94650080E00E94650085B11A
:1003C000826085B98D2D82958F700E9465008D2D7C
:1003D0000E946500812F82958F700E946500812F99
:1003E0000E9465008F2D82958F700E9465008F2D71
:1003F0000E946500802F82958F700E946500802F7B
:100400000E9465008E2D82958F700E9465008E2D52
:100410000E9465008C2D82958F700E9465008C2D46
:100420000E9465008A2D82958F700E9465008A2D3A
:100430000E946500882D82958F700E946500882D2E
:100440000E94650085B18D7F85B980E00E946500BE
:1004500081E00E9465002FEF80E792E0215080400C
:100460009040E1F700C00000DF91CF911F910F9104
:10047000FF90EF90DF90CF90AF908F900895CF9343
:10048000C82F85B1826085B980E00E9465008FEF3A
:100490008C0F0E94650085B18D7F85B9CF9108953D
:1004A0000E947700812CA12C6894CC24C2F80F2ED6
:1004B000FEE0EF2EF02D0EE02FE14FE16AE084E048
:1004C0000E949F0081E00E943F0282E00E943F0262
:1004D00083E00E943F0284E00E943F0285E00E9488
:1004E0003F0286E00E943F0287E00E943F02FFCF6A
:0404F000F894FFCFAE
:00000001FF
