S01700004750494F5F484F4C415F4D554E444F2E7372656379
S11300000C9434000C9446000C9446000C94460066
S11300100C9446000C9446000C9446000C94460044
S11300200C9446000C9446000C9446000C94460034
S11300300C9446000C9446000C9446000C94460024
S11300400C9446000C9446000C9446000C94460014
S11300500C9446000C9446000C9446000C94460004
S11300600C9446000C94460011241FBECFEFD8E038
S1130070DEBFCDBF21E0A0E0B1E001C01D92A03001
S1130080B207E1F70E9448000C9467000C9400004A
S113009084B1806284B984B18F7784B985B1806278
S11300A085B92FEF89E698E1215080409040E1F72F
S11300B000C0000085B18F7D85B92FEF89E698E1F6
S11300C0215080409040E1F700C00000E7CFF89451
S10500D0FFCF5C
S9030000FC
